:100000000C942A000C943C000C943C000C943C0092
:100010000C943C000C943C000C943C000C943C0070
:100020000C943C000C943C000C943C000C943C0060
:100030000C943C000C943C000C943C000C943C0050
:100040000C94AA040C943C000C943C000C943C00CE
:100050000C943C0011241FBECFE5D8E0DEBFCDBF1D
:1000600010E0A0E6B0E001C01D92A236B107E1F7B2
:100070000E94D7040C94EA050C940000DF93CF9300
:10008000CDB7DEB7AFE4B0E0EFE4F0E080818E7F83
:100090008C93AFE4B0E0EFE4F0E0808182608C9379
:1000A000AEE4B0E0EEE4F0E0808188608C93AEE4F2
:1000B000B0E0EEE4F0E0808180618C93AFE4B0E0EA
:1000C000EFE4F0E0808180688C93AFE4B0E0EFE48F
:1000D000F0E080818F7B8C93AEE4B0E0EEE4F0E062
:1000E00080818E7F8C93AEE4B0E0EEE4F0E080811E
:1000F00082608C93AEE4B0E0EEE4F0E080818B7F30
:100100008C93CF91DF910895DF93CF9300D0CDB73B
:10011000DEB79A838983E6E4F0E089819A8191834E
:1001200080830F900F90CF91DF910895DF93CF934D
:1001300000D0CDB7DEB79A838983EAE4F0E0898105
:100140009A81918380830F900F90CF91DF910895D2
:10015000DF93CF9300D0CDB7DEB79A838983E8E4ED
:10016000F0E089819A81918380830F900F90CF91E5
:10017000DF910895DF93CF93CDB7DEB72D970FB6FC
:10018000F894DEBF0FBECDBF89836A834B8389811C
:10019000843008F009C18A81883008F005C18A815D
:1001A000823008F001C18981282F30E03D872C87FB
:1001B0008C859D858130910509F44FC02C853D8546
:1001C000223031052CF48C859D85009771F0ECC0B0
:1001D0002C853D852230310509F477C08C859D85BD
:1001E0008330910509F4A9C0DFC08B81282F30E04E
:1001F0003B872A878A859B85009731F02A853B8536
:1002000021303105B1F0D0C0ABE3B0E0EBE3F0E07A
:100210008081482F8A81282F30E081E090E0022EF3
:1002200002C0880F991F0A94E2F7809584238C936B
:10023000BBC0ABE3B0E0EBE3F0E08081482F8A8104
:10024000282F30E081E090E0022E02C0880F991F35
:100250000A94E2F7842B8C93A7C08B81282F30E07F
:100260003987288788859985009731F028853985D1
:1002700021303105B1F098C0A8E3B0E0E8E3F0E048
:100280008081482F8A81282F30E081E090E0022E83
:1002900002C0880F991F0A94E2F7809584238C93FB
:1002A00083C0A8E3B0E0E8E3F0E08081482F8A81D2
:1002B000282F30E081E090E0022E02C0880F991FC5
:1002C0000A94E2F7842B8C936FC08B81282F30E047
:1002D0003F832E838E819F81009731F02E813F8155
:1002E00021303105B1F060C0A5E3B0E0E5E3F0E016
:1002F0008081482F8A81282F30E081E090E0022E13
:1003000002C0880F991F0A94E2F7809584238C938A
:100310004BC0A5E3B0E0E5E3F0E08081482F8A819F
:10032000282F30E081E090E0022E02C0880F991F54
:100330000A94E2F7842B8C9337C08B81282F30E00E
:100340003D832C838C819D81009731F02C813D81F0
:1003500021303105B1F028C0A2E3B0E0E2E3F0E0E3
:100360008081482F8A81282F30E081E090E0022EA2
:1003700002C0880F991F0A94E2F7809584238C931A
:1003800013C0A2E3B0E0E2E3F0E08081482F8A816D
:10039000282F30E081E090E0022E02C0880F991FE4
:1003A0000A94E2F7842B8C932D960FB6F894DEBF57
:1003B0000FBECDBFCF91DF910895DF93CF93CDB71F
:1003C000DEB72D970FB6F894DEBF0FBECDBF898381
:1003D0006A834B838981843008F009C18A8188301F
:1003E00008F005C18B81823008F001C18981282F76
:1003F00030E03D872C878C859D858130910509F4FF
:100400004FC02C853D85223031052CF48C859D858F
:10041000009771F0ECC02C853D852230310509F440
:1004200077C08C859D858330910509F4A9C0DFC014
:100430008B81282F30E03B872A878A859B85009710
:1004400031F02A853B8521303105B1F0D0C0AAE3D7
:10045000B0E0EAE3F0E08081482F8A81282F30E085
:1004600081E090E0022E02C0880F991F0A94E2F703
:10047000809584238C93BBC0AAE3B0E0EAE3F0E06C
:100480008081482F8A81282F30E081E090E0022E81
:1004900002C0880F991F0A94E2F7842B8C93A7C09F
:1004A0008B81282F30E039872887888599850097A8
:1004B00031F02885398521303105B1F098C0A7E3A6
:1004C000B0E0E7E3F0E08081482F8A81282F30E018
:1004D00081E090E0022E02C0880F991F0A94E2F793
:1004E000809584238C9383C0A7E3B0E0E7E3F0E03A
:1004F0008081482F8A81282F30E081E090E0022E11
:1005000002C0880F991F0A94E2F7842B8C936FC066
:100510008B81282F30E03F832E838E819F8100972F
:1005200031F02E813F8121303105B1F060C0A4E36C
:10053000B0E0E4E3F0E08081482F8A81282F30E0AA
:1005400081E090E0022E02C0880F991F0A94E2F722
:10055000809584238C934BC0A4E3B0E0E4E3F0E007
:100560008081482F8A81282F30E081E090E0022EA0
:1005700002C0880F991F0A94E2F7842B8C9337C02E
:100580008B81282F30E03D832C838C819D810097C7
:1005900031F02C813D8121303105B1F028C0A1E33B
:1005A000B0E0E1E3F0E08081482F8A81282F30E03D
:1005B00081E090E0022E02C0880F991F0A94E2F7B2
:1005C000809584238C9313C0A1E3B0E0E1E3F0E0D5
:1005D0008081482F8A81282F30E081E090E0022E30
:1005E00002C0880F991F0A94E2F7842B8C932D96F2
:1005F0000FB6F894DEBF0FBECDBFCF91DF91089547
:10060000DF93CF9300D000D00F92CDB7DEB78A83AF
:100610006B8382E089838A81843008F06BC08B8190
:10062000883008F067C08A81282F30E03D832C8312
:100630004C815D814130510541F18C819D81823039
:10064000910534F42C813D812115310561F052C0B2
:100650004C815D814230510551F18C819D81833007
:100660009105B9F147C0E9E3F0E08081282F30E03F
:100670008B81882F90E0A90102C0559547958A95F6
:10068000E2F7CA018170898335C0E6E3F0E080813A
:10069000282F30E08B81882F90E0A90102C055956A
:1006A00047958A95E2F7CA018170898323C0E3E305
:1006B000F0E08081282F30E08B81882F90E0A90125
:1006C00002C0559547958A95E2F7CA0181708983E2
:1006D00011C0E0E3F0E08081282F30E08B81882F8B
:1006E00090E0A90102C0559547958A95E2F7CA01A5
:1006F0008170898389810F900F900F900F900F90D8
:10070000CF91DF910895DF93CF9300D000D0CDB784
:10071000DEB789836A838981843090F58981282FA7
:1007200030E03C832B838B819C8181309105D1F01B
:100730002B813C81223031052CF48B819C810097E8
:1007400061F01EC02B813C812230310581F08B810C
:100750009C818330910581F013C0EBE3F0E08A8146
:1007600080830EC0E8E3F0E08A81808309C0E5E37E
:10077000F0E08A81808304C0E2E3F0E08A81808334
:100780000F900F900F900F90CF91DF910895DF930E
:10079000CF9300D000D0CDB7DEB789836A8389813B
:1007A000843090F58981282F30E03C832B838B8126
:1007B0009C8181309105D1F02B813C812230310523
:1007C0002CF48B819C81009761F01EC02B813C81B1
:1007D0002230310581F08B819C818330910581F03D
:1007E00013C0EAE3F0E08A8180830EC0E7E3F0E023
:1007F0008A81808309C0E4E3F0E08A81808304C0B9
:10080000E1E3F0E08A8180830F900F900F900F90CA
:10081000CF91DF910895DF93CF93CDB7DEB7A7E2F5
:10082000B0E0E7E2F0E080818F7D8C93A6E2B0E05B
:10083000E6E2F0E08081887F86608C93A6E2B0E0FB
:10084000E6E2F0E080818F7D8C93A7E2B0E0E7E202
:10085000F0E080818F778C93A7E2B0E0E7E2F0E0F0
:10086000808180648C93A6E2B0E0E6E2F0E08081D3
:1008700088608C93A6E2B0E0E6E2F0E080818068D8
:100880008C93CF91DF910895DF93CF9300D0CDB7B4
:10089000DEB78983A7E2B0E0E7E2F0E08081982F3D
:1008A000907E89818770892B8C93A6E2B0E0E6E286
:1008B000F0E0808180648C93E6E2F0E08081A6E243
:1008C000B0E0E6E2F0E080818F7E8C93E4E2F0E03D
:1008D0008081882F90E00F900F90CF91DF91089545
:1008E000DF93CF930F92CDB7DEB78983A7E2B0E055
:1008F000E7E2F0E08081982F907E89818770892BD4
:100900008C93A6E2B0E0E6E2F0E0808180648C9314
:100910000F90CF91DF910895DF93CF93CDB7DEB7DE
:10092000E4E2F0E08081882F90E0CF91DF9108959C
:10093000DF93CF9300D0CDB7DEB79A8389838981C7
:100940009A8190936100809360000F900F90CF91F7
:10095000DF9108951F920F920FB60F9211242F93DB
:100960003F934F935F936F937F938F939F93AF9337
:10097000BF93EF93FF93DF93CF93CDB7DEB7E091B3
:100980006000F09161000995CF91DF91FF91EF91A7
:10099000BF91AF919F918F917F916F915F914F9197
:1009A0003F912F910F900FBE0F901F9018950F93AE
:1009B0001F93DF93CF9300D000D000D0CDB7DEB728
:1009C0000E940B0483E065E041E00E94DD010E948B
:1009D0003E0080ED97E00E9484008CED95E09A83C4
:1009E000898389819A810E94960080E00E94700428
:1009F00081E00E94700480E00E9444049E838D8305
:100A000081E00E9444049C838B838D819E8160E001
:100A100070E04FEF53E020E030E004EB10E00E9484
:100A200078059E838D838B819C8160E070E04FEF21
:100A300053E020E030E004EB10E00E9478059C8356
:100A40008B838B819C819C012E5C3F4F8D819E818D
:100A50002817390730F589819A81843B910528F45C
:100A600089819A8101969A83898389819A81853BBC
:100A7000910520F084EB90E09A83898389819A81A3
:100A800060E070E044EB50E028EE33E000ED17E06A
:100A90000E9478059A83898389819A810E949600B1
:100AA000A4CF8D819E819C012E5C3F4F8B819C81C8
:100AB0002817390708F099CF89819A81009729F082
:100AC00089819A8101979A83898389819A8160E0DB
:100AD00070E044EB50E028EE33E000ED17E00E94B8
:100AE00078059A83898389819A810E9496007DCFB7
:100AF0000F931F93DF93CF93CDB7DEB72A970FB62F
:100B0000F894DEBF0FBECDBF9A8389837C836B834D
:100B10005E834D8338872F831A87098729813A811D
:100B20008B819C812817390720F48B819C819A83C3
:100B3000898329813A818D819E818217930720F4D0
:100B40008D819E819A83898329813A818B819C81C1
:100B5000A901481B590B29853A858F819885B901D0
:100B6000681B790BCB019A01289FA001299F500D8A
:100B7000389F500D11242D813E818B819C81281B33
:100B8000390BCA01B9010E94D605CB019C018F81A6
:100B90009885820F931F2A960FB6F894DEBF0FBE7A
:100BA000CDBFCF91DF911F910F910895AA1BBB1B61
:100BB00051E107C0AA1FBB1FA617B70710F0A61B5D
:100BC000B70B881F991F5A95A9F780959095BC017E
:080BD000CD010895F894FFCF58
:00000001FF
